:100000000C9434000C9451000C9451000C94510049
:100010000C9451000C9451000C9451000C9451001C
:100020000C9451000C9451000C9451000C9451000C
:100030000C9451000C9451000C9451000C945100FC
:100040000C9451000C9451000C9451000C945100EC
:100050000C9451000C9451000C9451000C945100DC
:100060000C9451000C94510011241FBECFEFD8E026
:10007000DEBFCDBF11E0A0E0B1E0E6EAF3E002C0F0
:1000800005900D92A238B107D9F721E0A2E8B1E0BE
:1000900001C01D92A438B207E1F70E94B6010C948A
:1000A000D1010C940000529A5098589A5198599A3C
:1000B00008955A9A08955A9808950E9453004899AD
:1000C00009C0499907C081E090E090938301809333
:1000D000820104C0109283011092820180918201FA
:1000E00090918301089580E480937C0087E8809359
:1000F0007A00089590917C00987F90937C00909175
:100100007C008770982B90937C0080917A008064AB
:1001100080937A0080917A0084FFFCCF80917A00EE
:10012000806180937A0080917800909179000895A1
:100130000E94730080E00C947A00E0E8F0E0808197
:1001400083688083E1E8F0E080818B608083219A7E
:100150000895CF93DF93EC010E949D00C93CD10527
:1001600070F48DEC90E090938900809388002FEFDD
:1001700083EC99E0215080409040E1F734C0CE01FB
:10018000825D91098332914018F48AE991E008C0B8
:10019000CE018E5F91408F3B910570F48DEC92E023
:1001A00090938900809388008FEF93EC29E0815031
:1001B00090402040E1F717C0C65CD240CB33D1401D
:1001C00038F48DEC93E0909389008093880004C00C
:1001D00010928900109288009FEF23EC89E09150E3
:1001E00020408040E1F700C00000DF91CF910895EA
:1001F0001092C50087E68093C40086E48093C20015
:1002000088ED8093C10008958091C00087FFFCCFE6
:100210008091C60090E00895CF93DF93CDB7DEB70D
:100220006A970FB6F894DEBF0FBECDBF893C91052B
:10023000B0F48AE1E0E0F1E0DE01119601900D9268
:100240008A95E1F7FE0131968191882309F47CC0FB
:100250009091C00095FFFCCF8093C600F5CF9C0124
:10026000225D310923323140E8F48AE1EAE1F1E02C
:10027000DE01119601900D928A95E1F7FE0131960B
:100280008191882339F09091C00095FFFCCF809335
:10029000C600F6CF8FEF97EA21E6815090402040CC
:1002A000E1F759C09C012E5F31402F3B3105A8F486
:1002B0008AE1E4E3F1E0DE01119601900D928A9566
:1002C000E1F7FE0131968191882309F19091C000F8
:1002D00095FFFCCF8093C600F6CF865C92408B33AF
:1002E0009140E8F48AE1EEE4F1E0DE01119601903C
:1002F0000D928A95E1F7FE0131968191882339F0BC
:100300009091C00095FFFCCF8093C600F6CF4FEFD1
:1003100087EA91E6415080409040E1F71CC089E1B6
:10032000E8E6F1E0DE01119601900D928A95E1F781
:10033000FE0131968191882339F09091C00095FF9C
:10034000FCCF8093C600F6CF2FEF47EA81E621501D
:1003500040408040E1F700C000006A960FB6F89474
:10036000DEBF0FBECDBFDF91CF9108950E945D002B
:10037000019759F40E9459000E949800EC010E94D4
:10038000A900CE010E940C01F1CF0E945B002FEF6B
:1003900083EC99E0215080409040E1F700C00000DC
:0603A000E5CFF894FFCF49
:1003A60054656D70657261747572653A20323020DD
:1003B60064656772656520430A0054656D706572F1
:1003C60061747572653A20323520646567726565B9
:1003D60020430A0054656D70657261747572653AE2
:1003E6002032392064656772656520430A005465CA
:1003F6006D70657261747572653A20333320646579
:100406006772656520430A0054656D706572617494
:100416007572653A20302064656772656520430A07
:020426000000D4
:00000001FF
